{
  "_format": "hh-sol-artifact-1",
  "contractName": "ArtfiWhitelist",
  "sourceName": "contracts/ArtfiWhitelist.sol",
  "abi": [
    {
      "inputs": [
        {
          "internalType": "address",
          "name": "_artfi",
          "type": "address"
        },
        {
          "internalType": "address",
          "name": "_whitelister",
          "type": "address"
        }
      ],
      "stateMutability": "nonpayable",
      "type": "constructor"
    },
    {
      "anonymous": false,
      "inputs": [
        {
          "components": [
            {
              "internalType": "uint256",
              "name": "startTime",
              "type": "uint256"
            },
            {
              "internalType": "uint256",
              "name": "lockTime",
              "type": "uint256"
            },
            {
              "internalType": "uint256",
              "name": "maxFraction",
              "type": "uint256"
            },
            {
              "internalType": "uint256",
              "name": "totalFraction",
              "type": "uint256"
            }
          ],
          "indexed": false,
          "internalType": "struct ArtfiWhitelist.Whitelist",
          "name": "whitelist",
          "type": "tuple"
        }
      ],
      "name": "AddWhitelist",
      "type": "event"
    },
    {
      "anonymous": false,
      "inputs": [
        {
          "indexed": true,
          "internalType": "address",
          "name": "user",
          "type": "address"
        },
        {
          "indexed": false,
          "internalType": "bytes32",
          "name": "whitelist",
          "type": "bytes32"
        }
      ],
      "name": "Claim",
      "type": "event"
    },
    {
      "anonymous": false,
      "inputs": [
        {
          "indexed": true,
          "internalType": "address",
          "name": "user",
          "type": "address"
        },
        {
          "indexed": false,
          "internalType": "bytes32",
          "name": "whitelist",
          "type": "bytes32"
        },
        {
          "indexed": false,
          "internalType": "uint256",
          "name": "amount",
          "type": "uint256"
        },
        {
          "indexed": true,
          "internalType": "address",
          "name": "token",
          "type": "address"
        }
      ],
      "name": "Deposit",
      "type": "event"
    },
    {
      "anonymous": false,
      "inputs": [
        {
          "indexed": true,
          "internalType": "address",
          "name": "user",
          "type": "address"
        },
        {
          "indexed": false,
          "internalType": "bytes32",
          "name": "whitelist",
          "type": "bytes32"
        }
      ],
      "name": "Mint",
      "type": "event"
    },
    {
      "anonymous": false,
      "inputs": [
        {
          "indexed": true,
          "internalType": "address",
          "name": "previousOwner",
          "type": "address"
        },
        {
          "indexed": true,
          "internalType": "address",
          "name": "newOwner",
          "type": "address"
        }
      ],
      "name": "OwnershipTransferred",
      "type": "event"
    },
    {
      "anonymous": false,
      "inputs": [
        {
          "indexed": true,
          "internalType": "address",
          "name": "user",
          "type": "address"
        },
        {
          "indexed": false,
          "internalType": "bytes32",
          "name": "whitelist",
          "type": "bytes32"
        },
        {
          "indexed": false,
          "internalType": "uint256",
          "name": "amount",
          "type": "uint256"
        },
        {
          "indexed": true,
          "internalType": "address",
          "name": "token",
          "type": "address"
        }
      ],
      "name": "Redeposit",
      "type": "event"
    },
    {
      "inputs": [
        {
          "internalType": "bytes32",
          "name": "_whitelistID",
          "type": "bytes32"
        },
        {
          "components": [
            {
              "internalType": "uint256",
              "name": "startTime",
              "type": "uint256"
            },
            {
              "internalType": "uint256",
              "name": "lockTime",
              "type": "uint256"
            },
            {
              "internalType": "uint256",
              "name": "maxFraction",
              "type": "uint256"
            },
            {
              "internalType": "uint256",
              "name": "totalFraction",
              "type": "uint256"
            }
          ],
          "internalType": "struct ArtfiWhitelist.Whitelist",
          "name": "_whitelist",
          "type": "tuple"
        }
      ],
      "name": "addWhitelist",
      "outputs": [],
      "stateMutability": "nonpayable",
      "type": "function"
    },
    {
      "inputs": [],
      "name": "artfiNFT",
      "outputs": [
        {
          "internalType": "contract ArtfiNFT",
          "name": "",
          "type": "address"
        }
      ],
      "stateMutability": "view",
      "type": "function"
    },
    {
      "inputs": [
        {
          "internalType": "bytes32",
          "name": "_whitelist",
          "type": "bytes32"
        }
      ],
      "name": "claim",
      "outputs": [],
      "stateMutability": "nonpayable",
      "type": "function"
    },
    {
      "inputs": [
        {
          "internalType": "address",
          "name": "_token",
          "type": "address"
        },
        {
          "internalType": "uint256",
          "name": "_price",
          "type": "uint256"
        },
        {
          "internalType": "bytes32",
          "name": "_whitelist",
          "type": "bytes32"
        },
        {
          "internalType": "string",
          "name": "_fractions",
          "type": "string"
        },
        {
          "internalType": "bytes",
          "name": "_signature",
          "type": "bytes"
        }
      ],
      "name": "doWhitelist",
      "outputs": [],
      "stateMutability": "payable",
      "type": "function"
    },
    {
      "inputs": [
        {
          "internalType": "bytes32",
          "name": "_whitelist",
          "type": "bytes32"
        }
      ],
      "name": "mint",
      "outputs": [],
      "stateMutability": "nonpayable",
      "type": "function"
    },
    {
      "inputs": [
        {
          "internalType": "uint256",
          "name": "",
          "type": "uint256"
        }
      ],
      "name": "nftMeta",
      "outputs": [
        {
          "internalType": "uint256",
          "name": "fraction",
          "type": "uint256"
        },
        {
          "internalType": "address",
          "name": "owner",
          "type": "address"
        },
        {
          "internalType": "bytes32",
          "name": "whitelist",
          "type": "bytes32"
        }
      ],
      "stateMutability": "view",
      "type": "function"
    },
    {
      "inputs": [],
      "name": "owner",
      "outputs": [
        {
          "internalType": "address",
          "name": "",
          "type": "address"
        }
      ],
      "stateMutability": "view",
      "type": "function"
    },
    {
      "inputs": [
        {
          "internalType": "address",
          "name": "",
          "type": "address"
        }
      ],
      "name": "payToken",
      "outputs": [
        {
          "internalType": "bool",
          "name": "",
          "type": "bool"
        }
      ],
      "stateMutability": "view",
      "type": "function"
    },
    {
      "inputs": [
        {
          "internalType": "address",
          "name": "_token",
          "type": "address"
        },
        {
          "internalType": "uint256",
          "name": "_amount",
          "type": "uint256"
        },
        {
          "internalType": "bytes32",
          "name": "_whitelist",
          "type": "bytes32"
        }
      ],
      "name": "reWhitelist",
      "outputs": [],
      "stateMutability": "payable",
      "type": "function"
    },
    {
      "inputs": [],
      "name": "renounceOwnership",
      "outputs": [],
      "stateMutability": "nonpayable",
      "type": "function"
    },
    {
      "inputs": [
        {
          "internalType": "address",
          "name": "_treasury",
          "type": "address"
        }
      ],
      "name": "setTreasury",
      "outputs": [],
      "stateMutability": "nonpayable",
      "type": "function"
    },
    {
      "inputs": [
        {
          "internalType": "address",
          "name": "_whitelister",
          "type": "address"
        }
      ],
      "name": "setWhitelister",
      "outputs": [],
      "stateMutability": "nonpayable",
      "type": "function"
    },
    {
      "inputs": [],
      "name": "taxPercent",
      "outputs": [
        {
          "internalType": "uint256",
          "name": "",
          "type": "uint256"
        }
      ],
      "stateMutability": "view",
      "type": "function"
    },
    {
      "inputs": [
        {
          "internalType": "address",
          "name": "newOwner",
          "type": "address"
        }
      ],
      "name": "transferOwnership",
      "outputs": [],
      "stateMutability": "nonpayable",
      "type": "function"
    },
    {
      "inputs": [],
      "name": "treasury",
      "outputs": [
        {
          "internalType": "address",
          "name": "",
          "type": "address"
        }
      ],
      "stateMutability": "view",
      "type": "function"
    },
    {
      "inputs": [
        {
          "internalType": "address",
          "name": "_token",
          "type": "address"
        },
        {
          "internalType": "bool",
          "name": "_flag",
          "type": "bool"
        }
      ],
      "name": "updateToken",
      "outputs": [],
      "stateMutability": "nonpayable",
      "type": "function"
    },
    {
      "inputs": [
        {
          "internalType": "address",
          "name": "",
          "type": "address"
        },
        {
          "internalType": "bytes32",
          "name": "",
          "type": "bytes32"
        }
      ],
      "name": "userInfo",
      "outputs": [
        {
          "internalType": "uint256",
          "name": "amount",
          "type": "uint256"
        },
        {
          "internalType": "uint256",
          "name": "price",
          "type": "uint256"
        },
        {
          "internalType": "address",
          "name": "token",
          "type": "address"
        },
        {
          "internalType": "enum ArtfiWhitelist.Stat",
          "name": "stat",
          "type": "uint8"
        }
      ],
      "stateMutability": "view",
      "type": "function"
    },
    {
      "inputs": [
        {
          "internalType": "bytes32",
          "name": "",
          "type": "bytes32"
        }
      ],
      "name": "whitelist",
      "outputs": [
        {
          "internalType": "uint256",
          "name": "startTime",
          "type": "uint256"
        },
        {
          "internalType": "uint256",
          "name": "lockTime",
          "type": "uint256"
        },
        {
          "internalType": "uint256",
          "name": "maxFraction",
          "type": "uint256"
        },
        {
          "internalType": "uint256",
          "name": "totalFraction",
          "type": "uint256"
        }
      ],
      "stateMutability": "view",
      "type": "function"
    },
    {
      "inputs": [],
      "name": "wmatic",
      "outputs": [
        {
          "internalType": "address",
          "name": "",
          "type": "address"
        }
      ],
      "stateMutability": "view",
      "type": "function"
    }
  ],
  "bytecode": "0x6101606040523480156200001257600080fd5b50604051620041fe380380620041fe83398181016040528101906200003891906200036d565b6040518060400160405280600581526020017f41525446490000000000000000000000000000000000000000000000000000008152506040518060400160405280600581526020017f312e302e30000000000000000000000000000000000000000000000000000000815250620000c4620000b8620001fb60201b60201c565b6200020360201b60201c565b60008280519060200120905060008280519060200120905060007f8b73c3c69bb8fe3d512ecc4cf759cc79239f7b179b0ffacaa9a75d522b39400f90508260e081815250508161010081815250504660a081815250506200012d818484620002c760201b60201c565b608081815250503073ffffffffffffffffffffffffffffffffffffffff1660c08173ffffffffffffffffffffffffffffffffffffffff16815250508061012081815250505050505050600180819055508173ffffffffffffffffffffffffffffffffffffffff166101408173ffffffffffffffffffffffffffffffffffffffff168152505080600860006101000a81548173ffffffffffffffffffffffffffffffffffffffff021916908373ffffffffffffffffffffffffffffffffffffffff160217905550505062000458565b600033905090565b60008060009054906101000a900473ffffffffffffffffffffffffffffffffffffffff169050816000806101000a81548173ffffffffffffffffffffffffffffffffffffffff021916908373ffffffffffffffffffffffffffffffffffffffff1602179055508173ffffffffffffffffffffffffffffffffffffffff168173ffffffffffffffffffffffffffffffffffffffff167f8be0079c531659141344cd1fd0a4f28419497f9722a3daafe3b4186f6b6457e060405160405180910390a35050565b60008383834630604051602001620002e4959493929190620003fb565b6040516020818303038152906040528051906020012090509392505050565b600080fd5b600073ffffffffffffffffffffffffffffffffffffffff82169050919050565b6000620003358262000308565b9050919050565b620003478162000328565b81146200035357600080fd5b50565b60008151905062000367816200033c565b92915050565b6000806040838503121562000387576200038662000303565b5b6000620003978582860162000356565b9250506020620003aa8582860162000356565b9150509250929050565b6000819050919050565b620003c981620003b4565b82525050565b6000819050919050565b620003e481620003cf565b82525050565b620003f58162000328565b82525050565b600060a082019050620004126000830188620003be565b620004216020830187620003be565b620004306040830186620003be565b6200043f6060830185620003d9565b6200044e6080830184620003ea565b9695505050505050565b60805160a05160c05160e051610100516101205161014051613d3d620004c16000396000818161093301528181610b3e015261137e01526000611ec301526000611f0501526000611ee401526000611e1901526000611e6f01526000611e980152613d3d6000f3fe6080604052600436106101145760003560e01c8063adf2cead116100a0578063d37113da11610064578063d37113da14610398578063f0f44260146103b4578063f2fde38b146103dd578063f98f5b9214610406578063fb41be161461042f57610114565b8063adf2cead146102b4578063afb40c8e146102dd578063b3cbf3961461031d578063b4a0e0e714610346578063bd66528a1461036f57610114565b80637541f41c116100e75780637541f41c146101b757806384b357e3146101e2578063863554c21461021f5780638da5cb5b1461025e578063a71d5bda1461028957610114565b8063094482da146101195780630de01a721461015957806361d027b314610175578063715018a6146101a0575b600080fd5b34801561012557600080fd5b50610140600480360381019061013b91906125bf565b61045a565b604051610150949392919061269e565b60405180910390f35b610173600480360381019061016e91906127ca565b6104c4565b005b34801561018157600080fd5b5061018a61085e565b6040516101979190612886565b60405180910390f35b3480156101ac57600080fd5b506101b5610884565b005b3480156101c357600080fd5b506101cc610898565b6040516101d991906128a1565b60405180910390f35b3480156101ee57600080fd5b50610209600480360381019061020491906128bc565b61089e565b6040516102169190612904565b60405180910390f35b34801561022b57600080fd5b506102466004803603810190610241919061291f565b6108be565b6040516102559392919061295b565b60405180910390f35b34801561026a57600080fd5b50610273610908565b6040516102809190612886565b60405180910390f35b34801561029557600080fd5b5061029e610931565b6040516102ab91906129f1565b60405180910390f35b3480156102c057600080fd5b506102db60048036038101906102d69190612a0c565b610955565b005b3480156102e957600080fd5b5061030460048036038101906102ff9190612a0c565b610c37565b6040516103149493929190612a39565b60405180910390f35b34801561032957600080fd5b50610344600480360381019061033f9190612aaa565b610c67565b005b34801561035257600080fd5b5061036d60048036038101906103689190612b0e565b610cca565b005b34801561037b57600080fd5b5061039660048036038101906103919190612a0c565b610d30565b005b6103b260048036038101906103ad9190612b4e565b6110b5565b005b3480156103c057600080fd5b506103db60048036038101906103d691906128bc565b611492565b005b3480156103e957600080fd5b5061040460048036038101906103ff91906128bc565b6114de565b005b34801561041257600080fd5b5061042d600480360381019061042891906128bc565b611561565b005b34801561043b57600080fd5b506104446115ad565b6040516104519190612886565b60405180910390f35b6005602052816000526040600020602052806000526040600020600091509150508060000154908060010154908060020160009054906101000a900473ffffffffffffffffffffffffffffffffffffffff16908060020160149054906101000a900460ff16905084565b6104cc6115c5565b600360008873ffffffffffffffffffffffffffffffffffffffff1673ffffffffffffffffffffffffffffffffffffffff16815260200190815260200160002060009054906101000a900460ff16610558576040517f08c379a000000000000000000000000000000000000000000000000000000000815260040161054f90612bfe565b60405180910390fd5b60006105e66040518060400160405280600181526020017f2c0000000000000000000000000000000000000000000000000000000000000081525086868080601f016020809104026020016040519081016040528093929190818152602001838380828437600081840152601f19601f8201169050808301925050505050505061161490919063ffffffff16565b905060008151905060008111610631576040517f08c379a000000000000000000000000000000000000000000000000000000000815260040161062890612c6a565b60405180910390fd5b61063f33898888888861187c565b61067e576040517f08c379a000000000000000000000000000000000000000000000000000000000815260040161067590612cd6565b60405180910390fd5b730d500b1d8e8ef31e21c99d1db9a6444d3adf127073ffffffffffffffffffffffffffffffffffffffff168973ffffffffffffffffffffffffffffffffffffffff160361070c57873414610707576040517f08c379a00000000000000000000000000000000000000000000000000000000081526004016106fe90612d42565b60405180910390fd5b61073a565b61073933308a8c73ffffffffffffffffffffffffffffffffffffffff166119a9909392919063ffffffff16565b5b6000600560003373ffffffffffffffffffffffffffffffffffffffff1673ffffffffffffffffffffffffffffffffffffffff16815260200190815260200160002060008981526020019081526020016000209050818160000181905550898160020160006101000a81548173ffffffffffffffffffffffffffffffffffffffff021916908373ffffffffffffffffffffffffffffffffffffffff1602179055508881600101819055508973ffffffffffffffffffffffffffffffffffffffff163373ffffffffffffffffffffffffffffffffffffffff167fddcff2534e44ab893ab86cadbfcf556c7c257bd657d168b0bfed850311dfe4f88a85604051610842929190612d62565b60405180910390a3505050610855611a32565b50505050505050565b600760009054906101000a900473ffffffffffffffffffffffffffffffffffffffff1681565b61088c611a3b565b6108966000611ab9565b565b60065481565b60036020528060005260406000206000915054906101000a900460ff1681565b60026020528060005260406000206000915090508060000154908060010160009054906101000a900473ffffffffffffffffffffffffffffffffffffffff16908060020154905083565b60008060009054906101000a900473ffffffffffffffffffffffffffffffffffffffff16905090565b7f000000000000000000000000000000000000000000000000000000000000000081565b61095d6115c5565b6000600560003373ffffffffffffffffffffffffffffffffffffffff1673ffffffffffffffffffffffffffffffffffffffff1681526020019081526020016000206000838152602001908152602001600020905060008160000154036109f8576040517f08c379a00000000000000000000000000000000000000000000000000000000081526004016109ef90612dd7565b60405180910390fd5b60006003811115610a0c57610a0b612627565b5b8160020160149054906101000a900460ff166003811115610a3057610a2f612627565b5b14610a70576040517f08c379a0000000000000000000000000000000000000000000000000000000008152600401610a6790612e43565b60405180910390fd5b60006004600084815260200190815260200160002090504281600101548260000154610a9c9190612e92565b1015610add576040517f08c379a0000000000000000000000000000000000000000000000000000000008152600401610ad490612f12565b60405180910390fd5b60028260020160146101000a81548160ff02191690836003811115610b0557610b04612627565b5b0217905550610b3c8260020160009054906101000a900473ffffffffffffffffffffffffffffffffffffffff168360000154611b7d565b7f000000000000000000000000000000000000000000000000000000000000000073ffffffffffffffffffffffffffffffffffffffff166340c10f193360016040518363ffffffff1660e01b8152600401610b98929190612f6d565b6020604051808303816000875af1158015610bb7573d6000803e3d6000fd5b505050506040513d601f19601f82011682018060405250810190610bdb9190612fab565b503373ffffffffffffffffffffffffffffffffffffffff167fd55909a3222b4688b86d9a5ff4d4660b08fc8b66c20c62bba968a42382d275ca84604051610c229190612fd8565b60405180910390a25050610c34611a32565b50565b60046020528060005260406000206000915090508060000154908060010154908060020154908060030154905084565b610c6f611a3b565b80600360008473ffffffffffffffffffffffffffffffffffffffff1673ffffffffffffffffffffffffffffffffffffffff16815260200190815260200160002060006101000a81548160ff0219169083151502179055505050565b610cd2611a3b565b80600460008481526020019081526020016000208181610cf2919061312f565b9050507fdc5809f0737a25350c997af69fd614813c45bfdbd215f8fffb8a8b86542e625581604051610d2491906131d8565b60405180910390a15050565b610d386115c5565b6000600560003373ffffffffffffffffffffffffffffffffffffffff1673ffffffffffffffffffffffffffffffffffffffff168152602001908152602001600020600083815260200190815260200160002090506000816001015403610dd3576040517f08c379a0000000000000000000000000000000000000000000000000000000008152600401610dca90612dd7565b60405180910390fd5b60006003811115610de757610de6612627565b5b8160020160149054906101000a900460ff166003811115610e0b57610e0a612627565b5b14610e4b576040517f08c379a0000000000000000000000000000000000000000000000000000000008152600401610e429061323f565b60405180910390fd5b60006004600084815260200190815260200160002090504281600101548260000154610e779190612e92565b1015610eb8576040517f08c379a0000000000000000000000000000000000000000000000000000000008152600401610eaf90612f12565b60405180910390fd5b60018260020160146101000a81548160ff02191690836003811115610ee057610edf612627565b5b0217905550730d500b1d8e8ef31e21c99d1db9a6444d3adf127073ffffffffffffffffffffffffffffffffffffffff168260020160009054906101000a900473ffffffffffffffffffffffffffffffffffffffff1673ffffffffffffffffffffffffffffffffffffffff16036110065760003373ffffffffffffffffffffffffffffffffffffffff168360010154604051610f7a90613290565b60006040518083038185875af1925050503d8060008114610fb7576040519150601f19603f3d011682016040523d82523d6000602084013e610fbc565b606091505b5050905080611000576040517f08c379a0000000000000000000000000000000000000000000000000000000008152600401610ff7906132f1565b60405180910390fd5b5061105a565b6110593383600101548460020160009054906101000a900473ffffffffffffffffffffffffffffffffffffffff1673ffffffffffffffffffffffffffffffffffffffff16611b819092919063ffffffff16565b5b3373ffffffffffffffffffffffffffffffffffffffff167f89c904d8eb3603c6be0211db9f01e7df9fa900f68b5baf90b86756406d7d8182846040516110a09190612fd8565b60405180910390a250506110b2611a32565b50565b6110bd6115c5565b6000600560003373ffffffffffffffffffffffffffffffffffffffff1673ffffffffffffffffffffffffffffffffffffffff168152602001908152602001600020600083815260200190815260200160002090506000816000015403611158576040517f08c379a000000000000000000000000000000000000000000000000000000000815260040161114f90612dd7565b60405180910390fd5b6001600381111561116c5761116b612627565b5b8160020160149054906101000a900460ff1660038111156111905761118f612627565b5b146111d0576040517f08c379a00000000000000000000000000000000000000000000000000000000081526004016111c79061335d565b60405180910390fd5b600060046000848152602001908152602001600020905042816001015482600001546111fc9190612e92565b101561123d576040517f08c379a000000000000000000000000000000000000000000000000000000000815260040161123490612f12565b60405180910390fd5b730d500b1d8e8ef31e21c99d1db9a6444d3adf127073ffffffffffffffffffffffffffffffffffffffff168573ffffffffffffffffffffffffffffffffffffffff16036112cb578334146112c6576040517f08c379a00000000000000000000000000000000000000000000000000000000081526004016112bd90612d42565b60405180910390fd5b6112f9565b6112f83330868873ffffffffffffffffffffffffffffffffffffffff166119a9909392919063ffffffff16565b5b60038260020160146101000a81548160ff0219169083600381111561132157611320612627565b5b0217905550838260000181905550848260020160006101000a81548173ffffffffffffffffffffffffffffffffffffffff021916908373ffffffffffffffffffffffffffffffffffffffff16021790555061137c8585611b7d565b7f000000000000000000000000000000000000000000000000000000000000000073ffffffffffffffffffffffffffffffffffffffff166340c10f193360016040518363ffffffff1660e01b81526004016113d8929190612f6d565b6020604051808303816000875af11580156113f7573d6000803e3d6000fd5b505050506040513d601f19601f8201168201806040525081019061141b9190612fab565b508473ffffffffffffffffffffffffffffffffffffffff163373ffffffffffffffffffffffffffffffffffffffff167fbc8595a963015d4d14c1ab7bf9bbb86010c96750a7459ecf8570682804340a67858760405161147b929190612d62565b60405180910390a3505061148d611a32565b505050565b61149a611a3b565b80600760006101000a81548173ffffffffffffffffffffffffffffffffffffffff021916908373ffffffffffffffffffffffffffffffffffffffff16021790555050565b6114e6611a3b565b600073ffffffffffffffffffffffffffffffffffffffff168173ffffffffffffffffffffffffffffffffffffffff1603611555576040517f08c379a000000000000000000000000000000000000000000000000000000000815260040161154c906133ef565b60405180910390fd5b61155e81611ab9565b50565b611569611a3b565b80600860006101000a81548173ffffffffffffffffffffffffffffffffffffffff021916908373ffffffffffffffffffffffffffffffffffffffff16021790555050565b730d500b1d8e8ef31e21c99d1db9a6444d3adf127081565b60026001540361160a576040517f08c379a00000000000000000000000000000000000000000000000000000000081526004016116019061345b565b60405180910390fd5b6002600181905550565b60606000839050600080600190505b60018351611631919061347b565b821015611697576000611645878785611c07565b90507fffffffffffffffffffffffffffffffffffffffffffffffffffffffffffffffff81036116745750611697565b818061167f906134af565b92505060018161168f9190612e92565b925050611623565b8067ffffffffffffffff8111156116b1576116b06134f7565b5b6040519080825280602002602001820160405280156116e457816020015b60608152602001906001900390816116cf5790505b50935060009150600090505b600183516116fe919061347b565b821015611873576000611712878785611c07565b90507fffffffffffffffffffffffffffffffffffffffffffffffffffffffffffffffff810361174057835190505b6000838261174e919061347b565b67ffffffffffffffff811115611767576117666134f7565b5b6040519080825280601f01601f1916602001820160405280156117995781602001600182028036833780820191505090505b50905060008190506000808690505b8481101561182f578781815181106117c3576117c2613526565b5b602001015160f81c60f81b8383806117da906134af565b9450815181106117ed576117ec613526565b5b60200101907effffffffffffffffffffffffffffffffffffffffffffffffffffffffffffff1916908160001a9053508080611827906134af565b9150506117a8565b5060018461183d9190612e92565b95508188868061184c906134af565b97508151811061185f5761185e613526565b5b6020026020010181905250505050506116f0565b50505092915050565b6000806118fc7fbfd97b615f23a28d0a04deb7530042d13410019375c2eab14f9885362a33c2748988886040516020016118b7929190613594565b604051602081830303815290604052805190602001208a6040516020016118e194939291906135ad565b60405160208183030381529060405280519060200120611d05565b9050600860009054906101000a900473ffffffffffffffffffffffffffffffffffffffff1673ffffffffffffffffffffffffffffffffffffffff166119858286868080601f016020809104026020016040519081016040528093929190818152602001838380828437600081840152601f19601f82011690508083019250505050505050611d1f565b73ffffffffffffffffffffffffffffffffffffffff16149150509695505050505050565b611a2c846323b872dd60e01b8585856040516024016119ca939291906135f2565b604051602081830303815290604052907bffffffffffffffffffffffffffffffffffffffffffffffffffffffff19166020820180517bffffffffffffffffffffffffffffffffffffffffffffffffffffffff8381831617835250505050611d46565b50505050565b60018081905550565b611a43611e0d565b73ffffffffffffffffffffffffffffffffffffffff16611a61610908565b73ffffffffffffffffffffffffffffffffffffffff1614611ab7576040517f08c379a0000000000000000000000000000000000000000000000000000000008152600401611aae90613675565b60405180910390fd5b565b60008060009054906101000a900473ffffffffffffffffffffffffffffffffffffffff169050816000806101000a81548173ffffffffffffffffffffffffffffffffffffffff021916908373ffffffffffffffffffffffffffffffffffffffff1602179055508173ffffffffffffffffffffffffffffffffffffffff168173ffffffffffffffffffffffffffffffffffffffff167f8be0079c531659141344cd1fd0a4f28419497f9722a3daafe3b4186f6b6457e060405160405180910390a35050565b5050565b611c028363a9059cbb60e01b8484604051602401611ba0929190613695565b604051602081830303815290604052907bffffffffffffffffffffffffffffffffffffffffffffffffffffffff19166020820180517bffffffffffffffffffffffffffffffffffffffffffffffffffffffff8381831617835250505050611d46565b505050565b60008084905060008490506001815114611c2457611c236136be565b5b60008490505b8251811015611cd75781600081518110611c4757611c46613526565b5b602001015160f81c60f81b7effffffffffffffffffffffffffffffffffffffffffffffffffffffffffffff1916838281518110611c8757611c86613526565b5b602001015160f81c60f81b7effffffffffffffffffffffffffffffffffffffffffffffffffffffffffffff191603611cc457809350505050611cfe565b8080611ccf906134af565b915050611c2a565b507fffffffffffffffffffffffffffffffffffffffffffffffffffffffffffffffff925050505b9392505050565b6000611d18611d12611e15565b83611f2f565b9050919050565b6000806000611d2e8585611f62565b91509150611d3b81611fe3565b819250505092915050565b6000611da8826040518060400160405280602081526020017f5361666545524332303a206c6f772d6c6576656c2063616c6c206661696c65648152508573ffffffffffffffffffffffffffffffffffffffff166121af9092919063ffffffff16565b9050600081511115611e085780806020019051810190611dc89190613702565b611e07576040517f08c379a0000000000000000000000000000000000000000000000000000000008152600401611dfe906137a1565b60405180910390fd5b5b505050565b600033905090565b60007f000000000000000000000000000000000000000000000000000000000000000073ffffffffffffffffffffffffffffffffffffffff163073ffffffffffffffffffffffffffffffffffffffff16148015611e9157507f000000000000000000000000000000000000000000000000000000000000000046145b15611ebe577f00000000000000000000000000000000000000000000000000000000000000009050611f2c565b611f297f00000000000000000000000000000000000000000000000000000000000000007f00000000000000000000000000000000000000000000000000000000000000007f00000000000000000000000000000000000000000000000000000000000000006121c7565b90505b90565b60008282604051602001611f4492919061382e565b60405160208183030381529060405280519060200120905092915050565b6000806041835103611fa35760008060006020860151925060408601519150606086015160001a9050611f9787828585612201565b94509450505050611fdc565b6040835103611fd3576000806020850151915060408501519050611fc886838361230d565b935093505050611fdc565b60006002915091505b9250929050565b60006004811115611ff757611ff6612627565b5b81600481111561200a57612009612627565b5b03156121ac576001600481111561202457612023612627565b5b81600481111561203757612036612627565b5b03612077576040517f08c379a000000000000000000000000000000000000000000000000000000000815260040161206e906138b1565b60405180910390fd5b6002600481111561208b5761208a612627565b5b81600481111561209e5761209d612627565b5b036120de576040517f08c379a00000000000000000000000000000000000000000000000000000000081526004016120d59061391d565b60405180910390fd5b600360048111156120f2576120f1612627565b5b81600481111561210557612104612627565b5b03612145576040517f08c379a000000000000000000000000000000000000000000000000000000000815260040161213c906139af565b60405180910390fd5b60048081111561215857612157612627565b5b81600481111561216b5761216a612627565b5b036121ab576040517f08c379a00000000000000000000000000000000000000000000000000000000081526004016121a290613a41565b60405180910390fd5b5b50565b60606121be848460008561236c565b90509392505050565b600083838346306040516020016121e2959493929190613a61565b6040516020818303038152906040528051906020012090509392505050565b6000807f7fffffffffffffffffffffffffffffff5d576e7357a4501ddfe92f46681b20a08360001c111561223c576000600391509150612304565b601b8560ff16141580156122545750601c8560ff1614155b15612266576000600491509150612304565b60006001878787876040516000815260200160405260405161228b9493929190613ad0565b6020604051602081039080840390855afa1580156122ad573d6000803e3d6000fd5b505050602060405103519050600073ffffffffffffffffffffffffffffffffffffffff168173ffffffffffffffffffffffffffffffffffffffff16036122fb57600060019250925050612304565b80600092509250505b94509492505050565b60008060007f7fffffffffffffffffffffffffffffffffffffffffffffffffffffffffffffff60001b841690506000601b60ff8660001c901c6123509190612e92565b905061235e87828885612201565b935093505050935093915050565b6060824710156123b1576040517f08c379a00000000000000000000000000000000000000000000000000000000081526004016123a890613b87565b60405180910390fd5b6000808673ffffffffffffffffffffffffffffffffffffffff1685876040516123da9190613c0d565b60006040518083038185875af1925050503d8060008114612417576040519150601f19603f3d011682016040523d82523d6000602084013e61241c565b606091505b509150915061242d87838387612439565b92505050949350505050565b6060831561249b57600083510361249357612453856124ae565b612492576040517f08c379a000000000000000000000000000000000000000000000000000000000815260040161248990613c70565b60405180910390fd5b5b8290506124a6565b6124a583836124d1565b5b949350505050565b6000808273ffffffffffffffffffffffffffffffffffffffff163b119050919050565b6000825111156124e45781518083602001fd5b806040517f08c379a00000000000000000000000000000000000000000000000000000000081526004016125189190613ce5565b60405180910390fd5b600080fd5b600080fd5b600073ffffffffffffffffffffffffffffffffffffffff82169050919050565b60006125568261252b565b9050919050565b6125668161254b565b811461257157600080fd5b50565b6000813590506125838161255d565b92915050565b6000819050919050565b61259c81612589565b81146125a757600080fd5b50565b6000813590506125b981612593565b92915050565b600080604083850312156125d6576125d5612521565b5b60006125e485828601612574565b92505060206125f5858286016125aa565b9150509250929050565b6000819050919050565b612612816125ff565b82525050565b6126218161254b565b82525050565b7f4e487b7100000000000000000000000000000000000000000000000000000000600052602160045260246000fd5b6004811061266757612666612627565b5b50565b600081905061267882612656565b919050565b60006126888261266a565b9050919050565b6126988161267d565b82525050565b60006080820190506126b36000830187612609565b6126c06020830186612609565b6126cd6040830185612618565b6126da606083018461268f565b95945050505050565b6126ec816125ff565b81146126f757600080fd5b50565b600081359050612709816126e3565b92915050565b600080fd5b600080fd5b600080fd5b60008083601f8401126127345761273361270f565b5b8235905067ffffffffffffffff81111561275157612750612714565b5b60208301915083600182028301111561276d5761276c612719565b5b9250929050565b60008083601f84011261278a5761278961270f565b5b8235905067ffffffffffffffff8111156127a7576127a6612714565b5b6020830191508360018202830111156127c3576127c2612719565b5b9250929050565b600080600080600080600060a0888a0312156127e9576127e8612521565b5b60006127f78a828b01612574565b97505060206128088a828b016126fa565b96505060406128198a828b016125aa565b955050606088013567ffffffffffffffff81111561283a57612839612526565b5b6128468a828b0161271e565b9450945050608088013567ffffffffffffffff81111561286957612868612526565b5b6128758a828b01612774565b925092505092959891949750929550565b600060208201905061289b6000830184612618565b92915050565b60006020820190506128b66000830184612609565b92915050565b6000602082840312156128d2576128d1612521565b5b60006128e084828501612574565b91505092915050565b60008115159050919050565b6128fe816128e9565b82525050565b600060208201905061291960008301846128f5565b92915050565b60006020828403121561293557612934612521565b5b6000612943848285016126fa565b91505092915050565b61295581612589565b82525050565b60006060820190506129706000830186612609565b61297d6020830185612618565b61298a604083018461294c565b949350505050565b6000819050919050565b60006129b76129b26129ad8461252b565b612992565b61252b565b9050919050565b60006129c98261299c565b9050919050565b60006129db826129be565b9050919050565b6129eb816129d0565b82525050565b6000602082019050612a0660008301846129e2565b92915050565b600060208284031215612a2257612a21612521565b5b6000612a30848285016125aa565b91505092915050565b6000608082019050612a4e6000830187612609565b612a5b6020830186612609565b612a686040830185612609565b612a756060830184612609565b95945050505050565b612a87816128e9565b8114612a9257600080fd5b50565b600081359050612aa481612a7e565b92915050565b60008060408385031215612ac157612ac0612521565b5b6000612acf85828601612574565b9250506020612ae085828601612a95565b9150509250929050565b600080fd5b600060808284031215612b0557612b04612aea565b5b81905092915050565b60008060a08385031215612b2557612b24612521565b5b6000612b33858286016125aa565b9250506020612b4485828601612aef565b9150509250929050565b600080600060608486031215612b6757612b66612521565b5b6000612b7586828701612574565b9350506020612b86868287016126fa565b9250506040612b97868287016125aa565b9150509250925092565b600082825260208201905092915050565b7f496e76616c696420746f6b656e00000000000000000000000000000000000000600082015250565b6000612be8600d83612ba1565b9150612bf382612bb2565b602082019050919050565b60006020820190508181036000830152612c1781612bdb565b9050919050565b7f496e76616c6964206672616374696f6e73000000000000000000000000000000600082015250565b6000612c54601183612ba1565b9150612c5f82612c1e565b602082019050919050565b60006020820190508181036000830152612c8381612c47565b9050919050565b7f496e76616c6964207369676e6174757265000000000000000000000000000000600082015250565b6000612cc0601183612ba1565b9150612ccb82612c8a565b602082019050919050565b60006020820190508181036000830152612cef81612cb3565b9050919050565b7f496e76616c6964206d6174696300000000000000000000000000000000000000600082015250565b6000612d2c600d83612ba1565b9150612d3782612cf6565b602082019050919050565b60006020820190508181036000830152612d5b81612d1f565b9050919050565b6000604082019050612d77600083018561294c565b612d846020830184612609565b9392505050565b7f4e6f742077686974656c69737465640000000000000000000000000000000000600082015250565b6000612dc1600f83612ba1565b9150612dcc82612d8b565b602082019050919050565b60006020820190508181036000830152612df081612db4565b9050919050565b7f43616e206e6f74206d696e740000000000000000000000000000000000000000600082015250565b6000612e2d600c83612ba1565b9150612e3882612df7565b602082019050919050565b60006020820190508181036000830152612e5c81612e20565b9050919050565b7f4e487b7100000000000000000000000000000000000000000000000000000000600052601160045260246000fd5b6000612e9d826125ff565b9150612ea8836125ff565b9250828201905080821115612ec057612ebf612e63565b5b92915050565b7f5761697400000000000000000000000000000000000000000000000000000000600082015250565b6000612efc600483612ba1565b9150612f0782612ec6565b602082019050919050565b60006020820190508181036000830152612f2b81612eef565b9050919050565b6000819050919050565b6000612f57612f52612f4d84612f32565b612992565b6125ff565b9050919050565b612f6781612f3c565b82525050565b6000604082019050612f826000830185612618565b612f8f6020830184612f5e565b9392505050565b600081519050612fa5816126e3565b92915050565b600060208284031215612fc157612fc0612521565b5b6000612fcf84828501612f96565b91505092915050565b6000602082019050612fed600083018461294c565b92915050565b60008135613000816126e3565b80915050919050565b60008160001b9050919050565b60007fffffffffffffffffffffffffffffffffffffffffffffffffffffffffffffffff61304284613009565b9350801983169250808416831791505092915050565b600061307361306e613069846125ff565b612992565b6125ff565b9050919050565b6000819050919050565b61308d82613058565b6130a06130998261307a565b8354613016565b8255505050565b6000810160008301806130b981612ff3565b90506130c58184613084565b5050506001810160208301806130da81612ff3565b90506130e68184613084565b5050506002810160408301806130fb81612ff3565b90506131078184613084565b50505060038101606083018061311c81612ff3565b90506131288184613084565b5050505050565b61313982826130a7565b5050565b600061314c60208401846126fa565b905092915050565b61315d816125ff565b82525050565b60808201613174600083018361313d565b6131816000850182613154565b5061318f602083018361313d565b61319c6020850182613154565b506131aa604083018361313d565b6131b76040850182613154565b506131c5606083018361313d565b6131d26060850182613154565b50505050565b60006080820190506131ed6000830184613163565b92915050565b7f43616e206e6f7420776974686472617700000000000000000000000000000000600082015250565b6000613229601083612ba1565b9150613234826131f3565b602082019050919050565b600060208201905081810360008301526132588161321c565b9050919050565b600081905092915050565b50565b600061327a60008361325f565b91506132858261326a565b600082019050919050565b600061329b8261326d565b9150819050919050565b7f4661696c656420746f2073656e64206d61746963000000000000000000000000600082015250565b60006132db601483612ba1565b91506132e6826132a5565b602082019050919050565b6000602082019050818103600083015261330a816132ce565b9050919050565b7f43616e206e6f742072656465706f736974000000000000000000000000000000600082015250565b6000613347601183612ba1565b915061335282613311565b602082019050919050565b600060208201905081810360008301526133768161333a565b9050919050565b7f4f776e61626c653a206e6577206f776e657220697320746865207a65726f206160008201527f6464726573730000000000000000000000000000000000000000000000000000602082015250565b60006133d9602683612ba1565b91506133e48261337d565b604082019050919050565b60006020820190508181036000830152613408816133cc565b9050919050565b7f5265656e7472616e637947756172643a207265656e7472616e742063616c6c00600082015250565b6000613445601f83612ba1565b91506134508261340f565b602082019050919050565b6000602082019050818103600083015261347481613438565b9050919050565b6000613486826125ff565b9150613491836125ff565b92508282039050818111156134a9576134a8612e63565b5b92915050565b60006134ba826125ff565b91507fffffffffffffffffffffffffffffffffffffffffffffffffffffffffffffffff82036134ec576134eb612e63565b5b600182019050919050565b7f4e487b7100000000000000000000000000000000000000000000000000000000600052604160045260246000fd5b7f4e487b7100000000000000000000000000000000000000000000000000000000600052603260045260246000fd5b600081905092915050565b82818337600083830152505050565b600061357b8385613555565b9350613588838584613560565b82840190509392505050565b60006135a182848661356f565b91508190509392505050565b60006080820190506135c2600083018761294c565b6135cf6020830186612618565b6135dc604083018561294c565b6135e96060830184612609565b95945050505050565b60006060820190506136076000830186612618565b6136146020830185612618565b6136216040830184612609565b949350505050565b7f4f776e61626c653a2063616c6c6572206973206e6f7420746865206f776e6572600082015250565b600061365f602083612ba1565b915061366a82613629565b602082019050919050565b6000602082019050818103600083015261368e81613652565b9050919050565b60006040820190506136aa6000830185612618565b6136b76020830184612609565b9392505050565b7f4e487b7100000000000000000000000000000000000000000000000000000000600052600160045260246000fd5b6000815190506136fc81612a7e565b92915050565b60006020828403121561371857613717612521565b5b6000613726848285016136ed565b91505092915050565b7f5361666545524332303a204552433230206f7065726174696f6e20646964206e60008201527f6f74207375636365656400000000000000000000000000000000000000000000602082015250565b600061378b602a83612ba1565b91506137968261372f565b604082019050919050565b600060208201905081810360008301526137ba8161377e565b9050919050565b7f1901000000000000000000000000000000000000000000000000000000000000600082015250565b60006137f7600283613555565b9150613802826137c1565b600282019050919050565b6000819050919050565b61382861382382612589565b61380d565b82525050565b6000613839826137ea565b91506138458285613817565b6020820191506138558284613817565b6020820191508190509392505050565b7f45434453413a20696e76616c6964207369676e61747572650000000000000000600082015250565b600061389b601883612ba1565b91506138a682613865565b602082019050919050565b600060208201905081810360008301526138ca8161388e565b9050919050565b7f45434453413a20696e76616c6964207369676e6174757265206c656e67746800600082015250565b6000613907601f83612ba1565b9150613912826138d1565b602082019050919050565b60006020820190508181036000830152613936816138fa565b9050919050565b7f45434453413a20696e76616c6964207369676e6174757265202773272076616c60008201527f7565000000000000000000000000000000000000000000000000000000000000602082015250565b6000613999602283612ba1565b91506139a48261393d565b604082019050919050565b600060208201905081810360008301526139c88161398c565b9050919050565b7f45434453413a20696e76616c6964207369676e6174757265202776272076616c60008201527f7565000000000000000000000000000000000000000000000000000000000000602082015250565b6000613a2b602283612ba1565b9150613a36826139cf565b604082019050919050565b60006020820190508181036000830152613a5a81613a1e565b9050919050565b600060a082019050613a76600083018861294c565b613a83602083018761294c565b613a90604083018661294c565b613a9d6060830185612609565b613aaa6080830184612618565b9695505050505050565b600060ff82169050919050565b613aca81613ab4565b82525050565b6000608082019050613ae5600083018761294c565b613af26020830186613ac1565b613aff604083018561294c565b613b0c606083018461294c565b95945050505050565b7f416464726573733a20696e73756666696369656e742062616c616e636520666f60008201527f722063616c6c0000000000000000000000000000000000000000000000000000602082015250565b6000613b71602683612ba1565b9150613b7c82613b15565b604082019050919050565b60006020820190508181036000830152613ba081613b64565b9050919050565b600081519050919050565b60005b83811015613bd0578082015181840152602081019050613bb5565b60008484015250505050565b6000613be782613ba7565b613bf1818561325f565b9350613c01818560208601613bb2565b80840191505092915050565b6000613c198284613bdc565b915081905092915050565b7f416464726573733a2063616c6c20746f206e6f6e2d636f6e7472616374000000600082015250565b6000613c5a601d83612ba1565b9150613c6582613c24565b602082019050919050565b60006020820190508181036000830152613c8981613c4d565b9050919050565b600081519050919050565b6000601f19601f8301169050919050565b6000613cb782613c90565b613cc18185612ba1565b9350613cd1818560208601613bb2565b613cda81613c9b565b840191505092915050565b60006020820190508181036000830152613cff8184613cac565b90509291505056fea26469706673582212202bdd317ce178bd74706060d7e2583d979b73c5e524129548f3babb5185c288e664736f6c63430008110033",
  "linkReferences": {},
  "deployedLinkReferences": {}
}